:020000040800F2
:10000000E00B0020D5010008390600083106000881
:10001000350600080D050008EB0800080000000088
:100020000000000000000000000000008D06000835
:10003000110500080000000069060008A10700087B
:10004000EF010008EF010008EF010008EF010008D0
:10005000EF010008EF010008EF010008EF010008C0
:10006000EF010008EF010008EF010008EF010008B0
:10007000EF010008EF010008EF010008EF010008A0
:10008000EF010008EF010008EF010008EF01000890
:10009000EF010008EF010008EF010008EF01000880
:1000A000EF010008EF010008EF010008EF01000870
:1000B000EF010008EF010008EF010008EF01000860
:1000C000EF010008EF010008EF010008EF01000850
:1000D000EF01000805080008EF010008EF01000823
:1000E000EF010008EF010008EF010008EF01000830
:1000F000EF010008EF010008EF010008EF01000820
:10010000EF010008EF010008EF010008EF0100080F
:10011000EF010008EF010008EF010008EF010008FF
:10012000EF010008EF010008EF010008EF010008EF
:1001300000F002F800F03FF80AA090E8000C8244BA
:100140008344AAF10107DA4501D100F034F8AFF297
:10015000090EBAE80F0013F0010F18BFFB1A43F0A5
:100160000103184798860000B8860000103A24BFA3
:1001700078C878C1FAD8520724BF30C830C144BF0C
:1001800004680C607047000000230024002500264E
:10019000103A28BF78C1FBD8520728BF30C148BFEA
:1001A0000B607047642900F07F80002070471FB506
:1001B0001FBD10B510BD00F076F91146FFF7F7FF2F
:1001C00000F0CEFC00F094F903B4FFF7F2FF03BC9B
:1001D00000F08DFB0948804709480047FEE7FEE72D
:1001E000FEE7FEE7FEE7FEE7FEE7FEE7FEE7FEE7E7
:1001F00004480549054A064B70470000A50700085A
:1002000031010008E0050020E00B0020E00700209D
:10021000E0070020704700000FB41CB5074B06AA8A
:100220007B4469460090059800F025F90020694656
:1002300000F034F91CBC5DF814FB000079020000EA
:100240002DE9F0410E460446002020622046E16878
:10025000884730B3252805D0D4E901219047206A8A
:10026000401CF2E7E168204600278847050018D0C7
:10027000A5F14100192802D820354FF40067324615
:10028000294620462760FFF78DFF40B1012804D0A2
:10029000F61D26F007060836D8E7361DD6E72846AD
:1002A000DAE7206ABDE8F0812DE9F0410646002436
:1002B00010687529314616A510D0AFF300800028CC
:1002C00002DA404213A507E031688A0701D512A57A
:1002D00002E0490704D511A5012401E0AFF3008035
:1002E00000210A2206F1240709E0B0FBF2FCB0FB72
:1002F000F2F302FB1C00303078541846491C0028E9
:10030000F3D123462A463046BDE8F04100F055B807
:10031000000000002D0000002B0000002000000065
:100320004FF000020429C0F0128010F0030C00F01E
:100330001B80CCF1040CBCF1020F18BF00F8012B9C
:10034000A8BF20F8022BA1EB0C0100F00DB85FEA6A
:10035000C17C24BF00F8012B00F8012B48BF00F836
:10036000012B70474FF0000200B5134694469646A5
:10037000203922BFA0E80C50A0E80C50B1F12001B8
:10038000BFF4F7AF090728BFA0E80C5048BF0CC066
:100390005DF804EB890028BF40F8042B08BF7047C4
:1003A00048BF20F8022B11F0804F18BF00F8012B36
:1003B000704770477047704770472DE9F0470D460A
:1003C00099469246044600F124080168880604D53F
:1003D000E06921F01001216000E00120A84201DD68
:1003E000471B00E00027A1697A1902EB0900081AEF
:1003F000A0612078C00602D42046AFF3008000261A
:1004000008E0D4E901211AF806009047206A401C50
:10041000761C20624E45F4DB2078C0060AD52046C3
:10042000AFF3008006E0D4E9012130209047206A34
:10043000401C2062381EA7F10107F4DC07E0D4E974
:10044000012118F805009047206A401C2062281EF0
:10045000A5F10105F3DC2046AFF30080207800060B
:1004600002D50220BDE8F0870120FBE701694A1CA4
:1004700002610878704700B58FB0CDE901310021E5
:10048000059105497944CDE9031011466846FFF707
:10049000D7FE0FB000BD0000E5FFFFFF0A6802F8BD
:1004A000010B0A607047754600F02CF8AE46050057
:1004B0006946534620F00700854618B020B5FFF77F
:1004C00097FEBDE820404FF000064FF000074FF0C8
:1004D00000084FF0000B21F00701AC46ACE8C00962
:1004E000ACE8C009ACE8C009ACE8C0098D4670476B
:1004F00010B50446AFF300802046BDE81040FFF77A
:1005000063BE0000004870478005002000BFFEE782
:1005100070472DE9F0410246002500260020002307
:100520000024002791F803C00CF00F0591F803C0D8
:100530000CF0100CBCF1000F03D091F802C04CEA93
:10054000050591F800C0BCF1000F31D014680020FF
:100550002BE04FF0010C0CFA00F3B1F800C00CEAEC
:1005600003069E4220D183004FF00F0C0CFA03F7D4
:10057000BC4305FA03FC4CEA040491F803C0BCF147
:10058000280F06D14FF0010C0CFA00FCC2F814C081
:100590000AE091F803C0BCF1480F05D14FF0010CFF
:1005A0000CFA00FCC2F810C0401C0828D1D314601B
:1005B000B1F800C0BCF1FF0F34DD546800202EE01C
:1005C00000F1080C4FF0010808FA0CF3B1F800C074
:1005D0000CEA03069E4221D183004FF00F0C0CFA67
:1005E00003F7BC4305FA03FC4CEA040491F803C08A
:1005F000BCF1280F05D100F1080C08FA0CF8C2F87C
:10060000148091F803C0BCF1480F07D100F1080C29
:100610004FF0010808FA0CF8C2F81080401C0828B6
:10062000CED35460BDE8F0814161704701617047ED
:1006300000BFFEE700BFFEE77047000008B50121DC
:10064000082000F013F8C020ADF8000014208DF849
:10065000030003208DF8020069460248FFF759FFA6
:1006600008BD0000000C01407047000029B1064A97
:1006700092690243044B9A6104E0034A92698243FF
:10068000014B9A617047000000100240704710B59E
:1006900000F002F810BD00000CB5002001900090A1
:1006A0003348006840F480303149086000BF30486A
:1006B000006800F4003000900198401C0190009800
:1006C00018B90198B0F5A06FF1D12948006800F47D
:1006D000003010B10120009001E00020009000984F
:1006E000012843D12348006840F0100021490860E8
:1006F0000846006820F0030008600846006840F0E3
:10070000020008601A484068194948600846406875
:1007100048600846406840F4806048600846406889
:1007200020F47C1048600846406840F4E8104860B7
:100730000846006840F08070086000BF0C48006800
:1007400000F000700028F9D00948406820F003004C
:10075000074948600846406840F00200486000BF12
:100760000348406800F00C000828F9D10CBD0000D7
:100770000010024000200240042808D14FF0E02180
:10078000096941F004014FF0E022116107E04FF0E8
:10079000E021096921F004014FF0E0221161704766
:1007A0007047000010B51348006840F0010011497F
:1007B000086008464068104908400E4948600846ED
:1007C00000680E4908400B4908600846006820F49C
:1007D000802008600846406820F4FE0048604FF41E
:1007E0001F008860FFF753FF4FF000600449086066
:1007F00010BD0000001002400000FFF8FFFFF6FEF1
:1008000008ED00E010B540F225511D4800F03EF81B
:1008100010B31B4800F064F8C4B21A48008800F412
:100820000040C8B91748008800F4804060B10A2C25
:1008300003D000201349088020E01248008840F4CB
:1008400000401049088019E00D2C06D10D480088A1
:1008500040F480400B49088010E00A480088C0F34B
:100860000D0009490C5407480088401C05490880C0
:1008700008460088C72801DD0020088010BD000060
:10088000003801401C000020B800002070B502466E
:10089000002400230025002040F66A16B14200D152
:1008A00000BFC1F3421501F01F03012606FA03F34E
:1008B000012D02D19689334006E0022D02D1168A1D
:1008C000334001E0968A33400C12012606FA04F404
:1008D0001688344013B10CB1012000E0002070BD37
:1008E00001468888C0F30800704700BFFEE700BFDC
:1008F0007047000010B56FF00400FFF73DFF0A4895
:1009000000680A49B0FBF1F0094908700846007810
:1009100000EB4001C1EBC0104FF6FF7101EAC000CF
:100920000449088010BD00000000002000127A0079
:1009300014000020160000200146114A12884A4384
:100940004FF0E0235A6100229A611A46126942F080
:1009500001021A6100BF4FF0E022106900F00102AD
:100960001AB100F48032002AF5D04FF0E02212696B
:1009700022F001024FF0E0231A6100229A617047D1
:10098000160000200146114A12784A434FF0E02336
:100990005A6100229A611A46126942F001021A61F4
:1009A00000BF4FF0E022106900F001021AB100F41C
:1009B0008032002AF5D04FF0E022126922F00102C5
:1009C0004FF0E0231A6100229A6170471400002062
:1009D00010B5044600224C21204601F03FFC10BD1A
:1009E00010B5044600224D21204601F037FC10BD11
:1009F00010B504462068427B2D21204601F02EFCD4
:100A000010BD10B5044601224C21204601F026FC01
:100A100001224D21204601F021FC2046FFF7E8FF8E
:100A200010BD10B50446204600F01BF82046FFF725
:100A3000DFFF204600F00AF8204600F012F82046BA
:100A4000FFF7D6FF2046FFF7C3FF10BD10B50446E1
:100A500001224C21204601F001FC2046FFF7C8FF8F
:100A600010BD10B5044601224D21204601F0F6FBD1
:100A700010BD10B5044694F8250040B12046FFF79C
:100A8000F0FF2046FFF7B4FF2046FFF7DFFF2046C8
:100A9000FFF7E7FF2046FFF7A3FF2046FFF7A8FF79
:100AA0002046FFF795FF012084F8250010BD10B502
:100AB00004462046FFF794FF2046FFF799FF2046A3
:100AC000FFF7C4FF2046FFF7CCFF2046FFF790FF5B
:100AD000002084F8250010BD70B505460C461CB1F9
:100AE0002846FFF7BEFF02E02846FFF779FF2846B9
:100AF000FFF77EFF2846FFF7A9FF2846FFF768FFAC
:100B000070BD70B505460C4604F080012846FFF71D
:100B1000E3FF04F040012846FFF7DEFF04F0200168
:100B20002846FFF7D9FF04F010012846FFF7D4FF4D
:100B300004F008012846FFF7CFFF04F0040128461F
:100B4000FFF7CAFF04F002012846FFF7C5FF04F0D3
:100B500001012846FFF7C0FF2846FFF762FF70BD7E
:100B600008B501214820FFF781FD2020ADF80000E5
:100B700010208DF8030003208DF8020069461E48FE
:100B8000FFF7C7FC20211C48FFF750FD2020ADF8DF
:100B9000000069461948FFF7BCFC20211748FFF701
:100BA00045FDFFF7A7FE164800F0CEF923E01448F4
:100BB00000F0BCF900BF124800F08AF820210E486E
:100BC000FFF732FD20210D48FFF730FD40F6B83029
:100BD000FFF7B2FE20210848FFF728FD2021074833
:100BE000FFF722FD40F6B830FFF7A6FE044800F0FC
:100BF000E2F90028DFD1DAE7000C014000180140DB
:100C0000240000202DE9F14F86B04FF0000A42E0A9
:100C1000069800F063F8504601F0CFFC80460022B1
:100C2000224B01F043FB06460022214B01F0DCFC85
:100C3000044601F093FC83465A461EA101A8FFF723
:100C4000EBFA1E49069800F0EDF91DA320220A21B7
:100C5000069800F059F91D49069800F0E3F901AB38
:100C600036226021069800F04FF9082052232E22E8
:100C700009210090069800F063F806201FFA8AF315
:100C80002F220A210090069800F035F8069800F00F
:100C9000B2F90AF1020ABAF1500FB9DD4FF47A70D5
:100CA000FFF74AFE07B0BDE8F08F00000000544097
:100CB0000000594025642525000000006F560008FB
:100CC00053544D33322055386732000099390008AB
:100CD00010B504462046FFF795FF10BD70B50446D9
:100CE0002068057C94F838004543ED002946606B88
:100CF000FFF716FB70BD2DE9F84380460E461446FB
:100D00001F46089D601980B20090F01983B22246F8
:100D10003146404600F032F908B9BDE8F8830BE0EF
:100D200000203B46224631460090404600F07EF8C7
:100D3000601C84B2681E85B2002DF1D100BFECE7C3
:100D40002DE9F84381460D4616461F46089CA846E5
:100D5000301980B20090E81983B2324629464846DD
:100D600000F00CF908B9BDE8F88300203B46324694
:100D700029460090484600F059F8022C23DBA01EBB
:100D800084B2701C86B2002C15DD01202346324649
:100D900029460090484600F049F8E81985B2681ED7
:100DA00085B201202346324629460090484600F08D
:100DB0003DF8301986B200203B463246414600904D
:100DC000484600F033F800BFCDE72DE9F041044676
:100DD0000D4616461F467020005D30B101280AD02E
:100DE00002280ED0032818D111E02046E16D884773
:100DF000304486B211E02046E16D8847281A85B25A
:100E00000BE02046E16D8847301A86B205E02046A7
:100E1000E16D8847284485B200BF00BF3B4632469B
:100E20002946204600F0B5FCBDE8F0817FB582B0D0
:100E300004460A9D94F88C00002863D0BDF8140085
:100E400000285FD0BDF8140001281CDD022D0CD154
:100E5000BDF80C00BDF81410401A80B20390BDF824
:100E60000C00401C80B203900DE0032D0BD1BDF8A7
:100E70001000BDF81410401A80B20490BDF81000A4
:100E8000401C80B2049005F00105C5B9B4F84C00CF
:100E9000BDF81010884201DD06B070BDB4F84E00F8
:100EA000BDF81010884200DCF6E7B4F84A30B4F818
:100EB000482005A903A800F0D6F9C0B9ECE7B4F8BA
:100EC0004800BDF80C10884200DDE5E7B4F84A00A0
:100ED000BDF80C10884200DCDEE7B4F84E30B4F800
:100EE0004C2005A904A800F0BEF900B9D4E700958C
:100EF000206BBDF81430BDF81020BDF80C108668CA
:100F00002046B04700BFC7E72DE9F04104460D4633
:100F100016461F46044860603B4632462946204636
:100F200000F0A0FABDE8F081731D000810B504467A
:100F300094F8930010B12046FFF7D0FE0021204620
:100F400000F062F810BD000010B50446084B094AD5
:100F50000949204600F0BAF8204600F0BAFE002108
:100F6000204600F0C8FE2046FFF7B8FE10BD000086
:100F7000C5210008D31D0008E42700082DE9F04131
:100F800004460D4616461F46DDF81880B4F84E108C
:100F9000B4F84C004346324600F091FC10B90020F2
:100FA000BDE8F081B4F84A10B4F848003B462A4640
:100FB00000F085FCF4E770B50446204600F086FD9D
:100FC00094F8395094F838002844C5B22068407C21
:100FD000A84204DC204600F085FE002070BD94F895
:100FE000930010B12046FFF779FE2946204600F015
:100FF0000BF80120F2E710B50446204600F066FD2C
:10100000204600F06FFE10BD70B504460D4684F812
:101010003950206B016820468847206B4168204684
:10102000884770BD70B504460D46A06DA84208D033
:10103000A565294604F1740000F0D8FC204600F0B4
:1010400067F870BD0149C16570470000F5140008DC
:1010500010B50446002030342084A0844FF6FF7081
:101060006084E08454F8300941682046884710BD08
:101070002DE9F04104460D4616461F46DDF818805E
:101080000020A065E762656384F8386084F8390061
:1010900000216D20015500207434607760760120B6
:1010A000A077E07744F8448C54F8440C743C016811
:1010B000204688472046FFF7CBFF2046FFF7C2FFB8
:1010C000002170200155BDE8F08100002DE9FC41B0
:1010D00007460C4615461E462B460A4A0A4938461C
:1010E000009600F012FE01A800F078FC8046074B45
:1010F00000949DF8042041463846FFF7B9FFBDE84B
:10110000FC810000251F000865200008EF1800087A
:10111000816D01B970478121095C80F88E108221B0
:10112000095C80F88F1090F88D1099B390F88D10AD
:10113000012914D190F98E2090F983108A4203DAA4
:101140008321095C80F88E1090F98F2090F984102B
:101150008A421FDD8421095C80F88F101AE090F923
:101160007E2090F98010114490F98E20914207DD85
:101170007E210A5C8021095C114449B280F88E10FE
:1011800090F98F2090F980108A4203DD8021095C5C
:1011900080F88F1000BFBDE710B523B1012B05D03B
:1011A000022B09D105E04418A0B208E0841AA0B2CD
:1011B00005E0441AA0B202E08418A0B200BF00BF4C
:1011C00010BD10B523B1012B05D0022B09D105E0CC
:1011D0008418A0B208E04418A0B205E0841AA0B2B6
:1011E00002E0441AA0B200BF00BF10BD38B50446EB
:1011F0005034E08800906388A28834F85019204663
:10120000FFF7BCFE18B9002084F88C002AE001200A
:1012100084F88C00B4F84800B4F85010884203DA1F
:10122000B4F85000A4F84800B4F84A00B4F85210DA
:10123000884203DDB4F85200A4F84A00B4F84C0028
:10124000B4F85410884203DAB4F85400A4F84C00FF
:10125000B4F84E00B4F85610884203DDB4F85600D6
:10126000A4F84E0038BD70B505460E4614462988D0
:101270000A463088104482B2914206DD994203DA70
:101280001A46501E82B200E02146994201DB00203E
:1012900070BDA24201DC0020FAE7A14200DA21463B
:1012A0009A4200DD1A462980501A82B2328001200B
:1012B000EEE72DE9F84304460E4615461F46DDF8D5
:1012C0002080E08F281A85B2CDF800803B462A4660
:1012D00031462046D4F82CC0E047BDE8F8832DE91C
:1012E000F84305460E4691461F46DDF82080B5F8C6
:1012F0004440A01B84B208F0010010B9E01B84B286
:1013000001E0601E84B23B464A4621462846CDF89D
:101310000080FFF7CEFFBDE8F8832DE9F8430446CF
:101320000D4616461F46DDF820803B4632462946CC
:101330002046CDF80080FFF7BCFFBDE8F8832DE91B
:10134000F84F06460F46904699460A9DBA46B6F8AB
:101350004640A4EB080084B2601E84B2681CC5B28B
:10136000022D05D1A4EB090084B2601C84B20025D3
:101370004B465246214630460095FFF79AFFBDE89E
:10138000F88F2DE9F84F0646894692461F46DDF84C
:101390002880B6F84650A5EB0A0085B2B6F844405E
:1013A000A4EB090084B2B8F1000F04D1681E85B225
:1013B000E01B84B206E0B8F1010F03D1601E84B2D5
:1013C000E81B85B23B462A4621463046CDF80080D0
:1013D000FFF76FFFBDE8F88F2DE9F84F05460E4681
:1013E00017469846DDF82890BA46B5F84440A01B49
:1013F00084B2B9F1000F09D1601E84B2A4EB0800D9
:1014000084B2601C84B24FF0010903E0601E84B214
:101410004FF000094346224651462846CDF8009039
:10142000FFF747FFBDE8F88F2DE9F84305468946E9
:1014300016461F46DDF82080B5F84640A01B84B252
:1014400008F0010010B1E01B84B201E0601E84B21C
:101450003B46224649462846CDF80080FFF729FF43
:10146000BDE8F8832DE9F04706460F4690469946B9
:10147000304600F017FF4FF0000A00BF99F8001047
:1014800030467268904705464FF6FF718D4200D195
:101490002CE009F101094FF6FE708542EED02B4693
:1014A000424639463046FFF790FC04467020805D86
:1014B00030B1012807D002280AD0032810D10AE051
:1014C000381987B20CE008EB04001FFA80F807E037
:1014D000381B87B204E0A8EB04001FFA80F800BFB5
:1014E00000BF0AEB04001FFA80FAC7E700BF5046AE
:1014F000BDE8F087014600207047F0B507460C466E
:101500002146384600F00BF845B20126601EC4B2F1
:1015100006FA04F046B2A81B45B22846F0BD70B5E5
:1015200002460C46117B1568287808410B461D19A8
:10153000EBB2082B0EDB08256E1AF5B21668761C86
:10154000166016683678AE400643F0B2A3F108067E
:10155000F3B200BF0125A5406D1E2840137370BD76
:101560002DE9F34F85B0054605F16004284606993C
:1015700000F085F995F96B607A20415D2046FFF710
:10158000BCFF02907B20415D2046FFF7B6FF8346FB
:101590007C20415D2046FFF7B0FF019094F90A00DE
:1015A000002871DD237C06EB0B0149424AB2A0887A
:1015B0000299FFF7F1FDA080237C06EB0B01494265
:1015C0004AB2E0880299FFF7FCFDE080A788B4F8F2
:1015D0000680B946C246207C30B101280ED00228D0
:1015E0001AD0032842D12EE094F90A0048441FFA89
:1015F00080F90AEB06001FFA80FA37E0B81B87B2C1
:10160000781C87B209F101001FFA80F994F90A00E9
:1016100050441FFA80FA29E094F90A00381A87B278
:10162000781C87B209F101001FFA80F9A8EB0600C7
:101630001FFA80F808F101001FFA80F80AF1010092
:101640001FFA80FA12E009EB06001FFA80F994F9FC
:101650000A00A8EB00001FFA80F808F101001FFA49
:1016600080F80AF101001FFA80FA00BF00BF4B4664
:10167000424639462846CDF800A0FFF77FFC20B946
:10168000019807B0BDE8F08F29E000202072607259
:1016900000BF7620415D2046FFF741FF0490772090
:1016A000415D2046FFF73BFF039000BF0022284624
:1016B000049900F016F801222846039900F011F869
:1016C00001212046FFF72BFF0028EFD194F90900F4
:1016D000B042DEDB00BF00BFA07B85F8920001981E
:1016E000CFE72DE9FF5F80468A46934608F1600404
:1016F0005546277A94F8099000BFA67AF01BC6B227
:101700000396B54200DA0395A0880290E088019024
:10171000237C4FFA89F279B20298FFF73DFD0290DF
:10172000237C4FFA89F279B20198FFF74AFD0190C4
:10173000BBF1000F0BD0A07B88F89200207C0090BA
:101740004046DDE90213019AFFF770FB0CE0607B75
:1017500050B9E07B88F89200207C00904046DDE99B
:101760000213019AFFF762FBB54200DA07E0A81BFB
:10177000C5B2002709F1010000F0FF09BDE700BF75
:101780007819C7B278B220724FFA89F06072BDE85A
:10179000FF9F2DE9F04704460D4616461F464FF0C1
:1017A000000964200553662006533946204600F0A0
:1017B00011F88046B8F1000F05D041462046FFF7EA
:1017C000CFFE1FFA80F94846BDE8F08702460A447A
:1017D000107870472DE9F04107460D46BC6D17346F
:1017E000FF2D18DC612D03DB8820C05B044404E07E
:1017F000412D02DB8620C05B044400BF607800B945
:1018000008E02078A84202D1A01CBDE8F0816078F1
:101810000444F3E725E08A20C05B0444A04600BFEF
:101820000021404600F01FF804440221404600F029
:101830001AF8064608F10408AE42F1DB00BF26782C
:101840004FF6FF7000EA06266078064306B906E008
:10185000AE4201D1E01CD8E7A0780444EFE700BF16
:1018600000BF0020D1E702460A441078521C4FF610
:10187000FF7303EA00201378034498B2704770B5F1
:1018800005460E4605F1600426600020207378208E
:10189000415D2046FFF743FE40B2A0727920415DD2
:1018A0002046FFF73CFE40B2E07295F89200A0732C
:1018B000A07B08B9012000E00020E07370BD10B5E6
:1018C00004468A4209DAA34201DD012010BD9A4292
:1018D00001DD0120FAE70020F8E7A34205DD9A4286
:1018E00001DD0120F2E70020F0E70020EEE72DE91E
:1018F000F04704468946DDF82080D1B201F00701A7
:10190000012606FA01FA0AF0FF060027BC4694F801
:1019100092A0BAF1010F00DC374694F892A0BAF118
:10192000010F00D0B446154625F00705D4F800A0F5
:101930009AF810A00AFB05FA1FFA8AF5606B284492
:101940004844B8F1000F14D100BF90F800A04AEA53
:10195000070A80F800A090F800A08AEA0C0A80F834
:1019600000A0401CA3F1010A1FFA8AF3002BECD15E
:1019700032E000BF90F800A04AEA070A80F800A011
:1019800090F800A08AEA0C0A80F800A001F1010A90
:101990000AF0FF0101F00701A3F1010A1FFA8AF31F
:1019A00081B9B4F83AA0504494F892A0BAF1010F6A
:1019B00000DC012794F892A0BAF1010F0AD04FF091
:1019C000010C07E04FEA476A4FEA1A674FEA4C6A90
:1019D0004FEA1A6C002BCDD1BDE8F08701460820F4
:1019E00008700148704700008001002070B504466F
:1019F0000D4600212846FFF7E9FE20700121284608
:101A0000FFF7E4FE607002212846FFF7DFFEA070BA
:101A100003212846FFF7DAFEE07004212846FFF78D
:101A2000D5FE207105212846FFF7D0FE6071062102
:101A30002846FFF7CBFEA07107212846FFF7C6FE18
:101A4000E07108212846FFF7C1FE207209212846CF
:101A5000FFF7BCFE40B260720A212846FFF7B6FECF
:101A600040B2A0720B212846FFF7B0FE40B2E072F0
:101A70000C212846FFF7AAFE40B220730D2128460C
:101A8000FFF7A4FE40B260730E212846FFF79EFECA
:101A900040B2A0730F212846FFF798FE40B2E073D2
:101AA00010212846FFF792FE40B2207411212846EB
:101AB000FFF7D9FE608213212846FFF7D4FEA082EB
:101AC00015212846FFF7CFFEE08270BD2DE9F041D9
:101AD0000446002594F8387094F83960206890F82E
:101AE000118000BF32462946204600F00AF8681CE3
:101AF000C5B2701CC6B2BD4201DA4645F2DBBDE894
:101B0000F0812DE9F84305460E469146286890F885
:101B1000108034466F6B04FB08F084B24FF6FF7000
:101B200000EAC404274443464A4600212846009759
:101B300000F0B6F8BDE8F88310B51A3050F81A2C4A
:101B4000817F4FF6FF7303EAC1014184117C03EAF0
:101B5000C1010184C17F03EAC1018184817FC37F08
:101B60001A380B44547CA34204DD537C90F839406E
:101B70001B1B99B24FF6FF7303EAC10130F83E3FD9
:101B800043804388838083880B448380938AC38007
:101B9000D38A03813E3810BD10B504462046FFF7B6
:101BA000CBFF10BD10B504462046FFF7C5FF2068E7
:101BB000808AA4F846002068C08AA4F8440010BDBA
:101BC00010B504462046FFF7B7FF10BD10B5044618
:101BD0002046FFF7B1FF2068808AA4F846002068FD
:101BE000C08AA4F8440010BD10B50446002040345B
:101BF0002081A08860812088A0816088E081403CAD
:101C00002046FFF7F3FA10BD10B5044634F8400F34
:101C10002081608860810020A081E088E081403CD4
:101C20002046FFF7E3FA10BD10B504460020423409
:101C3000E0806088208100206081A08834F842190B
:101C4000884205DB4234A0882188401A6081423CEA
:101C50004034E0882188401AE081403C2046FFF76C
:101C6000C5FA10BD10B5044600204234E0806088FB
:101C700034F84219884205DB423460882188401AD2
:101C8000E080423C4034A0882188401A60810020D6
:101C9000A081E088E081403C2046FFF7A7FA10BD14
:101CA0002DE9FC4104460D4616461F46DDF820800E
:101CB0008DF805508DF806608DF80470CDF8008021
:101CC0006B4601220F212046D4F808C0E047BDE84A
:101CD000FC8170B5044600231A460A212046A568F7
:101CE000A84770BD70B5044600231A46102120464F
:101CF000A568A84770BD70B504460D4600232A4666
:101D00000B212046A668B04770BD2DE9F04104467E
:101D10000D4617461E46DDF81880204600F00AF8EA
:101D2000A560E7602661C4F81480204600F018F82A
:101D3000BDE8F0810021016008498160C160016156
:101D40004161002180F8231080F826108161FF2175
:101D500080F8241080F8281070470000BD2100088A
:101D600070B5044600231A4609212046A568A847F5
:101D700070BD024609B10A2902D14FF6FF707047C3
:101D80000846FCE770B5044600231A461921204690
:101D90002569A84770BD13B5044601AA0121204654
:101DA00000F001F81CBD2DE9F04104460D46164631
:101DB00033462A46172120462769B847BDE8F081F7
:101DC00070B5044600231A46182120462569A84705
:101DD00070BD2DE9F04106460F4614469846182F6F
:101DE0001BD004DC142F13D0172F23D104E0192F9C
:101DF0001CD0202F1ED10FE0454606E02978304642
:101E0000FEF77FFE6D1C601EC4B2002CF6DC14E0F1
:101E10003046FEF7F6FD10E00FE03046FEF729FEF3
:101E200096F824103046FEF76CFE06E03046FEF7CA
:101E30003EFE02E00020BDE8F08100BF0120FAE78D
:101E400070B5044600231A4619212046E568A847C4
:101E500070BD70B504460D4600232A461621204663
:101E6000E668B04770BD70B504460D4600232A46AB
:101E700015212046E668B04770BD2DE9F0410446C3
:101E80000D46164633462A4617212046E768B847CE
:101E9000BDE8F081F8B505460C4600BF2678641C05
:101EA000182E21D006DC152E09D0162E08D0172E9C
:101EB0002CD110E0192E18D0FE2E27D11CE000BF27
:101EC0002078009000239DF8002031462846EF68D6
:101ED000B847641C1BE0207800906A460121284620
:101EE000FFF7CBFF641C12E000BF00231A46314607
:101EF0002846EF68B8470AE0207800909DF8002057
:101F00002921284600F0AAF9641C00E0F8BDC5E7C5
:101F100070B5044600231A4618212046E568A847F4
:101F200070BD00002DE9F04104460F461546984665
:101F3000A7F11400062858D2DFE800F03903181D75
:101F4000494D2C48007810B12046FFF71BFF204672
:101F5000FFF736FF00212046FFF71DFF29462046E8
:101F6000FFF719FF01202349087040E02946204669
:101F7000FFF711FF3BE01F48007810B12046FFF744
:101F800001FF464608E032461821204600F073F96A
:101F9000A5F11800C5B21836182DF4DC32462946D2
:101FA000204600F068F90020124908701FE094F8FC
:101FB0002400FF2802D1782084F8240043462A46D2
:101FC00039462046D4F810C0E047BDE8F081002033
:101FD000084908700BE00748007810B12046FFF769
:101FE000D1FE00200349087001E00020EDE700BFAA
:101FF0000120EAE71E00002070B5044600231A46BF
:10200000282120466569A84700231A461421204646
:10201000E568A84701224B21204600F01FF92068FF
:1020200002792921204600F019F900224B2120468F
:1020300000F014F9206802792921204600F00EF9F9
:1020400001224B21204600F009F92068427929211C
:10205000204600F003F970BD01600268927C80F8B0
:10206000222070472DE9F04105460C4616461F46D2
:102070003B4632462146284600F01EF810B10120AA
:10208000BDE8F081092C09D00A2C0CD12846FFF7B5
:10209000B3FF07492846FFF7FDFE06E0054928463D
:1020A000FFF7DAFF01E00020EAE700BF0120E7E7E1
:1020B0002C280008542900082DE9F04704468846DA
:1020C00015461E46B8F10B0F09D0B8F10D0F11D00F
:1020D000B8F10E0F21D0B8F10F0F60D12CE025B967
:1020E00032492046FFF7D6FE03E031492046FFF78C
:1020F000D1FE57E045B92F492046FFF7CBFE2068B7
:10210000807C84F8220007E02B492046FFF7C2FEBE
:102110002068C07C84F8220044E02046FFF7F8FEE7
:1021200081212046FFF79FFE29462046FFF791FEBA
:102130002046FFF785FE35E02046FFF7E9FE777978
:10214000F806070E94F822003844C7B24021204612
:10215000FFF789FE102040EA27112046FFF783FE93
:1021600007F00F012046FFF774FEB07940F0B00190
:102170002046FFF76EFE00BF96F80490D6F800A048
:102180004FEAC960010E52462046FFF776FE681EF0
:10219000C5B2002DF0DC2046FFF752FE02E0002021
:1021A000BDE8F08700BF0120FAE700002D290008F4
:1021B00032290008372900083E29000810B50446D6
:1021C000002010BD2DE9F04105460E4614461F467D
:1021D0002C2E13D008DC282E0DD0292E11D02A2E1B
:1021E0000DD02B2E30D10BE02D2E0ED04C2E15D035
:1021F0004D2E29D11DE0FEF721FA29E028E027E045
:1022000026E02046FEF798FB22E0022C01DC0521A7
:1022100000E001210846FEF7B5FB19E024B9402192
:102220000D48FEF701FA03E040210B48FEF7FEF9E6
:102230000EE024B980210848FEF7F6F903E080217A
:102240000548FEF7F3F903E0012085F8270000BFF9
:1022500000BF0120BDE8F081000C01402DE9F041F4
:1022600004460D4616460023324629462046676935
:10227000B847BDE8F0812DE9F04104460D46164609
:102280002046FFF79DFD40212046FFF784FD3346A1
:102290002A46172120462769B8472046FFF772FDD6
:1022A000BDE8F081002180F8261070472DE9C0417B
:1022B00030B4DFF8A0C23CEA111418BF3CEA131492
:1022C00000F0EC8081EA03051CEA111444EAD5749D
:1022D00018BF1CEA131500F0C780A4EB05044FF0EB
:1022E000004545EAC12145EAC32341EA505143EA8A
:1022F000525304F17F74994204F500344FEAC02030
:102300004FEAC22208BF904200F09C804FEA13655A
:102310000FF24016765D4FEA134506FB05F7C7F14D
:10232000807706FB07F74FEAD737A7FB03687642AB
:10233000C8F58038A7FB06CE38BFA8F1010807FB17
:1023400008E64FF0000EA6FB028CE6FB03CEDCF1A4
:10235000000CCEF1004E38BFAEF1010EA6FB0C58BA
:102360004FF000074FF00005E6FB0E87A1FB08C603
:10237000A0FB07CE16EB0E0645F10005E1FB076555
:1023800015F1E04E7EBFA4F580345FEA46066D414C
:1023900016F1800745F100054FEA17274FEA066658
:1023A00047EA0567A6F1DE46B6F1805F4FEA1525DC
:1023B0001FD9384624F0010C05EBC471BCF1FE6F47
:1023C00001EB0C1102D8F0BCBDE8008124425CBFD7
:1023D00001F5801E9EEAC47F02D4F0BCBDE80081F6
:1023E000244238D4F0BCA1F1C041BDE8004100F066
:1023F000F3B94FEAD22242EA43524FEAD323A7FB72
:1024000002864FEAD02040EA415007FB03661EEAED
:102410000E0F4FEAD12105FB026658BFA6EB00560E
:10242000B6EB00564FEA520E4EEAC37E18EB0E0E84
:1024300056EB530EBDD518EB02085E417F1C55F1DB
:102440000005B6E74FF480154FF000074FF0000687
:102450004FF00008ADE7F0BC4FF0000001F1C041C3
:1024600001F00041BDE8008111EA0C1F0CEA1315D0
:1024700000D00CE013EA0C1F00F025804FF00000A4
:10248000F0BC81EA030101F00041BDE80081F0BC2D
:10249000BDE8004181EA030100F09EB9F0BCBDE84F
:1024A000004170B500F04AF9097EFC3E00F007B823
:1024B00081EA03014FF0000001F00041704781EA1A
:1024C000030100F089B9F0BCBDE800414FF0000005
:1024D00021497047FFFDFBF9F7F5F4F2F0EEEDEB63
:1024E000E9E8E6E4E3E1E0DEDDDBDAD8D7D5D4D312
:1024F000D1D0CFCDCCCBCAC8C7C6C5C4C2C1C0BF5E
:10250000BEBDBCBBBAB9B8B7B6B5B4B3B2B1B0AF63
:10251000AEADACABAAA9A8A8A7A6A5A4A3A3A2A147
:10252000A09F9F9E9D9C9C9B9A9999989797969502
:1025300095949393929191908F8F8E8E8D8C8C8B9E
:102540008B8A898988888787868585848483838226
:10255000828181800000FF070000F87F4FEA41037D
:102560004FEA5353A3F58063D3F11E03C8BFD3F1E1
:10257000210C0CDD4FF0004242EAC12242EA5052E7
:1025800032FA03FC8CEAE17CACEBE1707047102B73
:10259000C4BF0020704703F5787CBCF1FF3F04D036
:1025A0006FF0004282EA2100704770B500F0C6F873
:1025B0004992248000207047F2E710F0004248BFA3
:1025C0004042B0FA80F310FA03F10AD0C3F11D03C0
:1025D00003F580634FEA415002EB035202EBD12135
:1025E00070474FF000007047DFF848C170B51CEA33
:1025F000111E1EBF1CEA13159EEA0C0F95EA0C0F64
:1026000000F06F8081EA030423EA4C134EEAD47E83
:1026100021EA4C1141F4801143F48013AE44A1FB34
:10262000024CA0FB0365AEF17F7E361955EB0C051D
:10263000A1FB034C4CF10003A0FB021C16EB0C06A3
:10264000654153F10003094218BF46F0010613F437
:10265000007F0BD14FEA03314FEA0530340341EAE2
:10266000155140EA16506FF003020AE04FEAC32109
:102670004FEAC520F40241EA555140EA56506FF046
:10268000020202EB2E4201EB025585EACE710AD01E
:102690005FEA440C18BF24F0004450F1000041F1FF
:1026A000000120EAD47040F2FE7C624500D270BD89
:1026B000A84214BF4FF080444FF04044002E08BFA2
:1026C0000024BEF1806FA8BFA1F1C041BDE87040F9
:1026D00080F282804FF0000001F1C04101F0004122
:1026E00070479EEA0C0F0CEA131518BF95EA0C0F01
:1026F00006D04FF0000081EA030E0EF0004170BDDD
:1027000000F01CF88900013E00F007B800F009B89D
:102710004FEA430C5FEA5C5C08D081EA030100F0F9
:102720005BB84FEA410C5FEA5C5CF6D14FF0000009
:10273000014970470000FF070000F87F0EF1020E0C
:102740002EF0030E5EF8046B364205D4012A43EBEB
:10275000030515F5001F12D8012841EB010C1CF5EB
:10276000001F0CD80ED14FEAD17C15F5001F0CEBE1
:102770004C0C0CF1020C08BF4CEBD37C04E04FF086
:10278000080C01E04FEAD37C0CEB4C0526FA05F669
:1027900006F00706B6F1040C06D20EEB860CBDE877
:1027A00070404CF0010C6047DFE80CF0090B0202AE
:1027B0004FF000414FF00000A1F5002170BD194617
:1027C0001046012851EB010418BFD4F5001484BF52
:1027D000002001F0004170BD0808A0F500114FEA8B
:1027E00031017047991B0008E91B00081B13000802
:1027F000A51B0008091C00083F130008C11B0008A6
:10280000291C000883130008CD1B0008651C000864
:10281000D9130008991B0008E91B0008DF12000803
:10282000991B0008E91B0008291400081815AE15AB
:10283000D5168015A8163F15D316001540158D1610
:10284000141520160015A115C815DA1612158116D3
:10285000CF15D916F115DB1640152E15A415A6199E
:10286000FF1815AE15D5168015A8163F15D31600FE
:102870001540158D16141520160015A115C815DA6A
:102880001612158116EF15D916A115DB1600152E97
:1028900015A415A619FF1815AE15D5168015A8167E
:1028A0003F15D316001540158D161415201600156A
:1028B000A115C815DA1602158116CF15D916F1150E
:1028C000DB1640152E15A415A619FF1815AE15A474
:1028D00015D5165015A8163F15D31600154015AD81
:1028E000168B15D9162215DB16351532158116FFF4
:1028F00015A615DA161219FF1815AE15D51680157E
:10290000A8163F15D316001540158D161415201660
:102910000015A115C015DA1612158116CF15D91696
:10292000F115DB1640152E15A415A619FF1815AFC5
:1029300019FF1815AE19FF1815A115C819FF18159C
:10294000A015C019FF1815A115C019FF1815A0155D
:10295000C819FF000001140A6464323200127A00C0
:102960000004289610080000800040000001140AAE
:102970006464323200093D00000428961008020207
:1029800080004000E0000202040302040508070082
:10299000FF04FF05FF00E201D506D9200500510222
:1029A00021064151A20222072397925400230A557F
:1029B000CF560D550D5501240B65CF9AC7C8688CAD
:1029C0001C01250644B1127B260954B11653ACD222
:1029D0000827052157222807626FA69A0129086255
:1029E0006F1253A5002A06227332022B07339196E9
:1029F00056022C05214F222D051393322E0511511D
:102A0000122F0744B11EDB003008439132921A01A5
:102A100031064271B60A3207439132531A330743E3
:102A200091B2F2083408439112D3880135074391DB
:102A300032F4083607439132E21837074391325394
:102A4000093807439172A41139074391728E003AF5
:102A500006315192023B06414F92043C06327126E8
:102A6000033D063391B2073E0732711215003F074E
:102A70004271A27200400844B132D41E01410844A0
:102A8000B1A6E29801420844B1B2861C0243074352
:102A90009136B300440844B1B2A21C09450844B1C0
:102AA00072A43C02460844B132F4CA00470844B15B
:102AB00032741A03480844B112C7940149064151BF
:102AC00032024A07439132E3024B0844B112478A6B
:102AD000324C07439112CB014D0845D192D74A3A67
:102AE0004E0844B112979A014F0844B1A6A24C0A6D
:102AF000500844B1B2E24819510A45D132524C3122
:102B0000AD00520744B1F22A03530844B136341AD7
:102B10000A54074391B26205550744B112CD2156BC
:102B20000844B112CDA400570945D19255525D0019
:102B30005807439192CA54590844B112871E025A49
:102B40000844B1326239025B07626FB25A025C0913
:102B500044B192514619055D07626FA25A035E06A1
:102B60002397D6005F0614AF320260062277120365
:102B70006106339176046208439112555A00630648
:102B80003271B204640743919A5612650733913249
:102B9000D202660843919AD24A006707438F722691
:102BA0000168084391125552016906415192046A25
:102BB00007526F9693026B07439112D32A6C06411A
:102BC0005132026D0835D1A25AAA006E073391A284
:102BD000920A6F07339132D2087008438FA2D28ACB
:102BE000007107438FB6920C72073271B2120073F4
:102BF000073391A6920274074391965614750733D2
:102C00009192D40876073391925405770835D19282
:102C100055170078063391923A7908438F92461CF3
:102C2000017A07339122A3007B08638FA6CA1C0593
:102C30007C05614F727D09638F22734C49017E07C9
:102C400024B79654027F0854B132A4390480050099
:102C5000510281085391927252238208639156C3A4
:102C6000A10683086391D6464700840853919232A7
:102C70003A028508639196333A0286086391D6B981
:102C800046008707426FB2460088076391D61E6AE6
:102C90008908539192F250038A08639196F3500386
:102CA0008B08439192328A098C085331D7463101FF
:102CB0008D07527112730A8E0954B112938A6306FA
:102CC0008F0A64B1A6625271CC00900964B15A8E29
:102CD00091F208910835D136941A02920A48313F90
:102CE000649A23E71193086391D61E6904940853EC
:102CF0009192F248239509639192331A69049608D8
:102D00006391D64E6A0497086391962B3502980911
:102D1000638F92721A3109990A54B112938A322937
:102D2000009A0954B112338A72089B050091029CE3
:102D3000050091029D050091029E050091029F05EC
:102D4000009102A008639156E33502A1075271A6D3
:102D50005302A20963919A321A6904A30963919AF2
:102D6000324A6A04A40A649196548632B500A509D1
:102D700064B19654B9D40CA6065151A204A70863B5
:102D80008F32E29823A80614B91203A90F772F37C0
:102D900054866AA9AC9686692800AA05003103AB5F
:102DA00007339136A200AC0623933203AD05003100
:102DB00003AE0E772F3754866A99AAD2300D05AF2D
:102DC0000614B93202B007339532D208B107433145
:102DD00097561AB207339522A300B3063275A2069E
:102DE000B4062277A600B508432F93D49000B60A04
:102DF00056EF36AEB472CA29B705917312B8050002
:102E00003103B9063275A20ABA07339532D208BB2C
:102E1000073391224702BC0E670FA3639D324C39E2
:102E20008E8C1200BD0D670FA3639D324C32A78CB0
:102E300004BE0E672FA363A9324C398E8C1200BFDB
:102E400005009102C00A64B196515471CC00C109C9
:102E500064B15AAB386600C20A64B1A6625271CC42
:102E600000C30A64B196545471CC00C40954B11221
:102E7000938A6306C50964B1A6B18A6306C60A4887
:102E8000313F649A23E711C70954AF32F4885101E6
:102E9000C80A64B196511A23E511C90964B15A8E62
:102EA00091F208CA0A64B1A6E2182A8F00CB0A641C
:102EB000B112331A23E511CC07627112550BCD07FD
:102EC0006271265303CE076391D6D902CF0853917E
:102ED00092CA1600D00845D176956901D10964B12E
:102EE0009654867119D20A64B1965154512605D36D
:102EF0000964B15AAB289302D40A64B1A662525154
:102F00002605D50A64B1965454512605D60A54B103
:102F100012938A322900D7063391923AD80C66EF81
:102F20000EE34C52C5992100D90964B19651690E3E
:102F300001DA0864B1DA348700DB0A64B1A66246BC
:102F4000510E01DC0954B112338A7208DD0864B1F4
:102F5000DA1C7A08DE0A64AF925794236500DF0812
:102F6000538FA2545A11E008639196333A02E10854
:102F7000639156E33502E2086391D6464700E30ABF
:102F800064919654C6AA5A00E408539192323A02C8
:102F9000E5086391D6B94600E60835D136941A02A1
:102FA000E707426FB24600E808639196F3480BE9E1
:102FB00009639156C3911600EA086391D61E690110
:102FC000EB08539192F2480BEC07527112730AED21
:102FD000075271A65302EE085391D6463101EF080D
:102FE000439192328A09F00A64B126354A232605B4
:102FF000F10A649196548632B500F208639196F313
:103000004823F309639156C3914600F4086391D6AF
:103010001E6904F50A6491965486AB5A00F608536B
:103020009192F24823F708539196D14609F80A5530
:10303000CF8ED24C716504F9086391962B3502FA54
:1030400009639156C3A44600FB086391D64E6A04F7
:10305000FC08539192725223FD09738F56C3346258
:1030600012FE08538F12555A11FF09638F92721A7C
:10307000310900000004FFFF00005F0002020303AB
:10308000020404040600FF05FF05FF00E901D30266
:10309000B6200580CD002106E9C8AC00220693CBFE
:1030A0002415230AACC8A434541A2A012409B3C72E
:1030B000A5A1474A002508ABC864D446012609AC3F
:1030C000C8C514AB98022705D1CB082807F2C7A9B9
:1030D00066002908B2C7C45429002A07ABC8A46AED
:1030E000352B08ABC8C5B462022C0692C729002D47
:1030F000058BCA0C2E05C9C8042F07ABC85665043A
:103100003008ABC8554355003107ABC825590D32BF
:1031100007ABC835531A3308ABC8CC941700340832
:10312000ABC8243562013508ABC88CA81700360738
:10313000ABC84DD5023708ABC8CC5446003807ABF6
:10314000C8ADD6023907ABC8B5E4023A06E1C8C437
:10315000003B07AAC765A8003C07ABC8A6BA003D5C
:10316000069BC9EC013E07ABC8E4AA043F08ABC804
:10317000E89461024006ABC82D5B4108ABC85543DB
:10318000A9004208ABC8A8B4D2024308ABC8553264
:1031900055004408ABC8A8642D004508ABC88CA8EE
:1031A000E2004608ABC88CA862044708ABC8CDA4AF
:1031B00092004808ABC82435940A4907ABC8AC58FC
:1031C0000D4A07ABC896AA024B08ABC824B5920AB1
:1031D0004C07ABC8C4E6004D08ABC8A431940A4EF6
:1031E00008ABC8AAA124004F07ABC8555605500824
:1031F000ABC8A8B462045107B3C755561D5208ABFB
:10320000C8A8B4920A5307ABC8EDBC005407ABC8BA
:10321000ACD8025507ABC824D7085608ABC8246BF6
:10322000A4045708ABC82435860A5808ABC824D56F
:1032300052015908ABC8245556005A07ABC8CC54A4
:103240000E5B06EAC8AC4A5C07ABC8C45C065D0608
:10325000AAC8A86A5E0593CB355F058BC70C6006CC
:10326000D2CBC4006107A3C82D95046208ABC84443
:1032700095D4026306A3C8CD2C6408ABC8A6A5925A
:10328000006506A3C855536608ABC8A6B4620267BA
:1032900008ABC7AD2417006808ABC84495AC0069FB
:1032A00008ABC86524D3006A08B3C766582E006B04
:1032B00008ABC8C4B4920A6C07ABC8C8D6006D0886
:1032C000A3C8A4A154006E07A3C8A864056F07A3F0
:1032D000C855AA027008ABC7A8B462047108ABC78E
:1032E0002D9564007208A3C8A41523007307A3C812
:1032F0008DBC007408ABC8A51573007507A3C8245E
:103300002B097607A3C824AB027708A3C824355439
:10331000007807A3C8A432157908ABC72495E40246
:103320007A07A3C8CC94067B08B3C7A624EB007C1D
:1033300006E9C80C017D09B3C7E4A8628A007E07CC
:1033400094CB25950000000004FFFF0000BF0002A1
:10335000020303030404050700FF06FF0600010A39
:103360000216062F200500BD012106B1B119292240
:10337000075BB7495600230A2DB1AB86AA86AA007F
:1033800024092DB15BF54E6901250834B1C9B17727
:103390000026092CB18B29563105270599B7192824
:1033A0000772B153CD00290872B189A952002A07CA
:1033B0006BB149D56A2B0A2DB1CD280E9951042C39
:1033C000075BAF5325002D060CB519012E0652B12F
:1033D00019012F0724B38F6D00300873B1AB5C1552
:1033E00000310773B14BB235320934B15331C77272
:1033F00004330A34B1193969249302340A34B18D83
:10340000AA1A312700350A34B1197A2399140036E3
:103410000A34B1537945991400370A34B11939E6A1
:10342000982300380A34B15331A9289302390A3459
:10343000B15351A69D14003A076AB11971043B08B3
:1034400033AFB3912A013C076BB14D75013D081CA8
:10345000B319198D003E076BB1C955093F0973B106
:103460006BA60C1300400934B15351DD48014109EA
:1034700034B153518E2903420A34B15971A42847FB
:1034800002430934B15351974901440934B159D128
:10349000391200450934B1197AE53C02460834B1C5
:1034A000197AE51A470934B15351A79906480834E7
:1034B000B189724C33490773B159B1354A0834B1F7
:1034C0006FCBA4004B0A34B1892A4999CA004C0732
:1034D00034B1C9DD234D0934B189E38866004E0853
:1034E00034B1896BA9334F0934B153D199140050C9
:1034F0000A34B159518E943300510A3CAF53D15C18
:1035000049A300520934B159518ED40C530A34B135
:10351000533165542605540773B159B10B5508341E
:10352000B1899E4901560934B189CE241500570945
:1035300034B189E6386200580A34B18932491565D8
:1035400000590873B1495659015A0934B11939B6AD
:1035500047005B0773B119B1395C0924B3C928A3CB
:103560008C025D0773B199CD115E0553B96B5F068F
:103570000CB11901600652B98901610824B11B51CF
:10358000A902620A34B1C97945391200630623B130
:103590009B59640834B1AF469469650824B15369F6
:1035A0006405660934B1ADCA99230067092CAF1BC5
:1035B00031A98C06680834B1C9794533690873B1FB
:1035C000CB4856036A097BAFCDB05415006B093464
:1035D000B1C95592A90C6C0773B1915D036D0824B4
:1035E000B1496948196E0724B159D10C6F0824B14B
:1035F0005351260570092CAF59518E940171082C36
:10360000AF1B51A61D720824B159516700730824DD
:10361000B11B1A0D05740934B1CB71E68C04750722
:1036200024B189661A760763B1495605770724B134
:1036300089721C780824B18949AA1879092CAF89A4
:10364000329525007A0824B119B11C017B0873B1A9
:103650004D49D6017C05B1B1397D0973B1C951C558
:1036600014017E0714B94B2A01A00500BD01A10673
:10367000B1B14923A20934AF8D23356702A3082CC9
:10368000B155715602A40A2DB1C969A6B87200A538
:103690000973B149AA5A3101A606A9B15102A70876
:1036A0007BAF9BAA920BA8064BBB4901A90B3DAF70
:1036B0005B59A5A9924E0BAA061BB75B49AB071D28
:1036C000B38BB201AC0614B31939AD054BB519AEC5
:1036D0000B3DAF5B79A439755A00AF060CBB1901DD
:1036E000B0065BB7EB02B10B35B1CD280E99511C7A
:1036F00002B20662B55106B30662B51969B4065244
:10370000B95300B5082CAF89E64819B60834B11B87
:103710006AF503B70652B51901B80652AF5300B99E
:103720000763B54B320DBA061BB7EB02BB081DB3DE
:1037300089A54C00BC093CAFC9CDA87600BD093CA9
:10374000AFC92D1DB300BE0A3CAF913AAAA87600BE
:10375000BF0973B1CB30C55401C00934B153518E88
:103760002903C10934B153518E2903C20934B1531D
:10377000518E2903C30934B153518E2903C40A342D
:10378000B18949C5316500C50934B1932A8E290331
:10379000C60934B11BA91AAA25C70A3CAF535197D1
:1037A000494600C80934B1197AE53C02C90934B167
:1037B000197AE53C02CA0934B1197AE53C02CB0911
:1037C00034B1197AE53C02CC0773B159B135CD0754
:1037D00073B159B135CE0773B159B135CF0773B154
:1037E00059B135D00934B19969758D04D10834B116
:1037F0004973A933D20934B153D1991400D3093490
:10380000B153D1991400D40934B153D1991400D5CE
:103810000934B153D1991400D60A34B189494533DA
:103820002900D70824B18949AA18D80934B11BE95D
:10383000484702D90834B1899E4901DA0834B18970
:103840009E4901DB0834B1899E4901DC0A34B18903
:103850001945332900DD0873B149565901DE0A3490
:10386000B1C92B8E943300DF0934B1535195560200
:10387000E00A34B1CB288EA85401E10934B1AD4738
:1038800054AA00E20934B1ADD2884A15E30A34B132
:103890004B2A8EA85401E40934B1ABE1884A15E5FE
:1038A0000934B1937244A50AE60824B11B69C50125
:1038B000E7086BAF9B592500E80A34B1CB28AA343E
:1038C000B202E90934B1AD551A5901EA0A34B18B93
:1038D00029AA34B202EB0A34B14919AB34B202EC72
:1038E0000873B1C9495603ED0773B12B6535EE076F
:1038F00073B1AB6635EF0873B149595603F00A341A
:10390000B1CBC88A322900F10934B14B2AAD68061F
:10391000F20A34B1CB28AA289302F30934B1AD5589
:10392000944901F40A34B1D35845991400F50A3486
:10393000B14B2AAA289302F60A34B1ABA18A3229E4
:1039400000F7092CB1D37064A800F80924B11B69F1
:10395000A49100F90934B1CBA834D300FA0734B1EB
:103960006D9A69FB0834B1D3309A69FC0934B1AB64
:103970005134D300FD093CAF6DCA549600FE0A34A1
:10398000AFC92BCA913200FF0A3CAFAB5194A92CAE
:103990000100000004FFFF0000BF00020204040356
:1039A00004050C0DFFFE08FE08FE016A032C0984C5
:1039B000200500CC09210882C4C991F208220733EE
:1039C0006D4BB202231087447CCAA81C3365548E09
:1039D0009932AA012410A53C6B1E2AA938E2884915
:1039E000A5A1230025158AC49DD44A6555235549B0
:1039F00095544649E5A8725600261188C4AC862A1B
:103A00002395A186494B73A4A5002706316DCA00F2
:103A1000280BA4B47A8C4ABA754601290AA4B44A80
:103A200046D974C91A2A09555C6B55AD66042B0B2F
:103A3000554C6B4671C88C22002C0742B4C9480A09
:103A40002D06135CCA002E0622C4C9082F0A84C49E
:103A50007A99638E3903300E8544DB52238D34D23C
:103A60004823A905310984459B9ABE4600320C853E
:103A700044DB52236929F33802330E8544DB522399
:103A8000498D461A492D00340B8544EB95549A63B1
:103A90006439350D8544CB2BA391D14823A9053634
:103AA0000E8544DB52238FA4461A492D00370A8421
:103AB00044CBA1638E2E00380E8544DB5223A9A58A
:103AC000461A492D00390E8544DB52238DA4461E2B
:103AD000492D003A0752C4C988233B0972B4C988EA
:103AE0002329003C0956CC3B9236D6583D08355424
:103AF000CBD070083E0A56CC8BC61A4B1B013F0A2E
:103B00008544DBB2A5CCB4094012A93CFD465A66F7
:103B100098E248FE5432939A1E11411289433CCADE
:103B2000D4C61B468DA21E2366A4E608420E874417
:103B3000CC694935A425951C430143108744ECAA60
:103B400047461B6AA8518DE24800440F88C4CCAD9B
:103B5000A3565A69A5954E6302450E86C4CB25939C
:103B60008A23AA28931C23460E86C4CB25934C2A6D
:103B70008EA8A21E11470E8744ECAA47461BCAA175
:103B800055962B48128944CD482369A9E518514B15
:103B90002DB51A6904490984C4CA48D2D7084A0C09
:103BA00086C4EBC81A69E42BCA094B1189C4CC88B6
:103BB000769619A90C8746525B230E4C0F86C4CB10
:103BC000C81A69A4914632C931024D158B44CEC83A
:103BD00023ED9954924925995492D18CD652234E73
:103BE0001188C48C5E3ACE38524C23C699D54E000B
:103BF0004F0E8744ECAEF4C8238FAC729E00500F7A
:103C00008744CC694925D5901A6A343200511398FB
:103C10003CEC46396AA595562349A5D148192A0096
:103C2000520D88C4CC2D3DF3D0D235D200530D8631
:103C3000C4DB39F2D068E811D702540E86C4CB91A8
:103C40005C51238D34D22301551088C4CC484B4796
:103C50001D75D451479D4704561188C4CC484B4725
:103C60009D55462A2395A1C61A57158B44CE486AFE
:103C70004919CDA8928A2AA9BC36D21A69095810C6
:103C800088C4CC484BC795D1C61BA599D5115911ED
:103C900088C4CC484B679591CA50638D351C115A26
:103CA0000B86C4CB91F57CEB31025B08A334CA5080
:103CB000FE1A5C0C84C44ACE28679433CA015D089E
:103CC000A334CAF2D7105E0A65546B4679A65A0728
:103CD0005F061634CB01600623748A14610954C44C
:103CE000CA56238D01620E86C48B461A69641D7103
:103CF000C4B50063095544DB925BA605640E86C417
:103D0000FB461AA931E288232D0365095544DB528D
:103D1000E34623660C85C4EA52498EA8CD9100671C
:103D20000D86343B8A5339F7D8632400680E86C465
:103D30008B461A69641D71C41105690A84C49AD43A
:103D400070BA46006A09A3B49ABDBC46026B0E86DF
:103D5000448B461A69648D38A2B2066C0884C4CAC2
:103D6000F46B046D0D5AC48D92EA11E58872440318
:103D70006E0B56C48B52471C7144016F0C56C4DB4A
:103D80004872C411D54800700D76B48B52471C712F
:103D90008CA4D106710E77B4DB505249A5A6D2503F
:103DA000A311720954C48A1A239A00730954C4DAFD
:103DB00090230E05740973445A52439902750B56A9
:103DC000C48B1C71C4919601760B56C4CBB2A2CAA7
:103DD0001A4900770C5944CDF28A4A65A5910978B1
:103DE0000A56C4CBB2B24ED600790D76B4CBB2A28D
:103DF000CA1AC9AD11007A085544CB25CD317B0ACA
:103E0000A4B4AA9296966E017C068146CB217D0AC7
:103E1000A4B48A96B6922E097E0726DCDB520BA04C
:103E20000500CC09A10982B4C9C8698C00A20C752F
:103E30003C3B4A632595569A19A3108744EC883277
:103E40006A34B6465A8D911600A40C574C4C5AC988
:103E50005452A9B402A51288C4CC484B6795918DE1
:103E6000341C1A69382200A6078146CB1A01A70D17
:103E7000A4B4DA885BA591929E2301A80723744A13
:103E80005201A91288C4ECC819954BC5A43292AB53
:103E900046794400AA0863548A1E2A0FAB0A56C406
:103EA0006BA546924A16AC093554CBD028A300AD79
:103EB00006135CCA00AE1288C4ECC8195523A99831
:103EC000D45449D5288F08AF0614F4CA08B0084363
:103ED000645AA52A00B109554C6B1C325343B207F2
:103EE00043E4D9AA06B30743E4C9CA0BB407237451
:103EF000DA4800B50E76B48B1C71C491C61A1969E4
:103F000004B6108744DC38521A29AE8C6A54A37A5E
:103F100008B70622DCC908B80632354A1CB907437F
:103F2000E4599269BA0A64D49A8A32693802BB0C9D
:103F300056C44B8C4AAA91548C00BC1188C45C8E28
:103F4000BACC2BE39851D269C49C00BD0F88C45CE5
:103F50008EBACC2BE3A85399CB01BE1188C4CCCC2C
:103F600035AA65C631A3A4D3883901BF0B8534AB0C
:103F7000D674B4955A00C015B943AC2635CF4C6DF4
:103F8000BC61D428EA3162466A8E00C115B9433C4F
:103F9000D458F3CAD4C61B468DA21E2366A4E608D5
:103FA000C215B943FC864A73676AE30DA346518F75
:103FB0001133527304C316B943BCCA28695E99DA37
:103FC00078C3A851D463C48CD41C01C416B9437CF3
:103FD000CA38655E99DA78C3A851D463C48CD41CFE
:103FE00001C516B943BCC631634D666AE30DA346ED
:103FF000518F1133527304C6148AC4ED183AC99C08
:10400000548E230F15B34C598E3406C712A734ECC7
:10401000AA47461B6AA8518DE2C828430DC812B6AC
:10402000C49B869A1C4B261547545126394600C915
:1040300010B6C4BB4D8E25938A23AA28931C23CA8D
:1040400011B6C4EB541A8F25938A23AA28931C23F4
:10405000CB12B6C46BCA295363C9A4E2882ACA2406
:10406000C708CC0BB4C48AD67024E96B04CD0BB45A
:10407000C4AAD27024E96B04CE0CB5C4DAB2E188CC
:10408000DAE74800CF0BB4C45A371A49FA1A01D0FC
:104090000F88C4CCADA31E5369A5954E6302D114FD
:1040A000B8C4BCCA49B3F4D271C691621A31CEAC5D
:1040B0007602D211B744ACC69AB92B3DF2C823ABF5
:1040C0009C2700D311B744BC469ABD2B3DF2C823B0
:1040D000AB9C2700D411B744EC569AB52B3DF2C8DF
:1040E00023AB9C2700D511B744AC8A493377A54749
:1040F0001E796495F304D611B7446CCAA866EE4ADB
:104100008F3CF2C82AE709D709554C8B523B2F0345
:10411000D8108744ECAA931C2A8D94865439A5099B
:10412000D913B8C4ACA63473A4A5A38E3AEAA8A345
:10413000CE2302DA14B8C43CD25033475A3AEAA824
:10414000A38E3AEA3C2200DB13B8C4FC46363DD2CB
:10415000D251471D75D451E71101DC14B8C47CCA93
:104160003065D6484B471D75D451479D4704DD1532
:10417000B8C43CD25033475A3AAB8C54861A6BAC15
:10418000E18800DE0F8744CC86435A524935A44665
:104190002303DF0E8744EC889654A625951C4A011C
:1041A000E00B84C48AD670AB91C600E10B84C4AA2C
:1041B000D270AB91C600E20D95C46A5E36DC48AEA3
:1041C000A44602E30C85C49A1B6F2457522301E4D2
:1041D0000B84C44A6AC3AD461A03E50B84C49A8AA9
:1041E000496D35D218E60C58C4CC5A51A971E9353D
:1041F00002E70B7534DB925BA69D2500E80C854435
:104200009B469A5A6ADC6804E90B8544AB4D2E350F
:104210006E3402EA0C95446B5E365E6ADC6804EB31
:104220000C85445B9932B5D4B8D108EC0A84C48AB1
:10423000D670BA4600ED0A84C4AAD270BA4600EE1F
:104240000B95C46A5E36DCCE9100EF0A84C44A6ADC
:10425000C3E91A01F00E86C48B8CB31E498E38A2B6
:104260001A09F10D86C49BAA34A9D411471C51F236
:104270000E86C49B869A1E498E38A21A09F30D86B3
:10428000C4BB4D8F24471C518D04F41096C46B465B
:104290005369722439E2886A2400F50F86C4ABAAF8
:1042A0003439921C7144351200F60F86C45B9D327E
:1042B0003D921C7144351200F70A554C6BA686A638
:1042C0002200F80E76BC3B4C23A9B1465423650866
:1042D000F90D86C49B869A94238E38D232FA0C86C6
:1042E000C4BB4DCA11471C6919FB0F96C46B4653DA
:1042F000694A8E38E248CB00FC0D86C45B9D3229AA
:10430000471C71A465FD0EA6B4BB4D2E2BAAAC9123
:10431000DC1A01FE10A6B48B461A69641D71C43103
:1043200092461BFF0FA6B45B9D32B9ACA8B2467291
:104330006B0400000004FFFF0000BF00030304043F
:104340000305051012FEFD0BFD0BFE01C004400D20
:10435000012005008C142109B28514074ACC0022E3
:104360000843BD15112D012316A7847891602418E8
:10437000099922C148C8140946829118002417D708
:104380007C78C18A24328A5062C4222D42094D228F
:1043900092620C00251FBC845DC2A084284A14458B
:1043A000A292505814138724C190281812C5629203
:1043B000605004261ABC847D7491582416C521735C
:1043C0000869141A856434E188562A890027064151
:1043D000BD1304280DD47475A19028A4B7982C1887
:1043E000290ED47415C1982C26D229244A032A0BED
:1043F00055B4562929934C21002B0B778C78E1B4C6
:104400005B380D002C085275141609002D07249CEA
:104410001587002E06328514062F0DB48475996217
:1044200049B1A4580C00300DB7845833891ABF49DC
:10443000D446003109B58558129AFE44320DB7842E
:104440003824514DAAA8DBE1103310B78438245129
:104450004D2A9491A534D284043411B78498C2B5FE
:10446000882C220A894292A354483511B784389681
:1044700052386524994A69A40909003610B784584E
:1044800024118D2A59A9B195242400370FB7841817
:104490000FC1484C2A942A4AD5003811B78438A451
:1044A000118D6689912236A61105003910B78458FE
:1044B00014518DADB222A5914424003A077285149F
:1044C00026033B09927514268B04003C0A778CD88E
:1044D000C1D1F272003D07379C18F7033E0A778C72
:1044E00018E14D8B61003F0EB684371411492853F3
:1044F0008C033501401DBD849ED6E1483692284983
:10450000482A149188229268992849867248EC209A
:10451000024117BA849B72883C228E8843D198301E
:1045200026B4454551C98C004215B9841A372599DE
:104530004826523B0925428950223B8C004317BA3A
:10454000847B95C850229ECF2172881C2207892324
:10455000435909004419BB841C87A0702415892580
:10456000628958229688255291707288014517B940
:10457000841A078950228D885244C1A228284A9162
:10458000468407024616B9841A078950228D88523C
:1045900044C1A228280ACAC554004718BB847C9588
:1045A000D050248EC82372901C243C8BA4A2D99096
:1045B00014014818BB841C348A542415494552D12F
:1045C000412415494552915442234909B485171491
:1045D00091FE424A0EB7847944A95E44129124B4F4
:1045E000064B17BB841C249230288B8AC2927859C0
:1045F00032150D6533E184544C0EB9841A64B9BE8A
:1046000046A411E181004D24BD841E54CA74341D9A
:104610004564115144161145641151481212852404
:104620002151481212C5544622024E1CBB841CD391
:10463000C934440C4566A1902C1413A54D42415237
:104640007414968C23004F12BB847CC5D9482A91E0
:10465000F32E918A66C31A005012B9841A87906C9F
:1046600022940825B2894DAE990A5119EB6C7CC58C
:10467000D9482A91F332938824A211B10E128527CA
:10468000F109005217BB841C87A06C269409658A27
:104690005699502654134A6A13005312B9845A94F7
:1046A000C84C228D482364E7319152025416BA84D3
:1046B0001B879268A62D2887C82172881C2287C86C
:1046C00069005518BB841CC48938240E8943E290C4
:1046D00038240E8943E298305A035618BA841BB422
:1046E0008934248DC982B2A02C2A094BC292B81CED
:1046F00022045724BD841E14CA44260BC964219980
:104700002C26894882928824288948829288242AE3
:1047100013CBC43219005817BB841C25CA50268CF1
:104720008AE292F83C220F498332E184545917BA45
:10473000841BB48934260BCAA292B0242E87C821C8
:1047400072889C065A0FB8841987E19036D53A23AF
:104750000E0F035B09D4741526FD27025C0FB68487
:1047600017D170341C0D47C3D170005D09D4741586
:1047700024FD27035E0F77A478E1E8301293886266
:104780001199005F0617741707600834C516326167
:1047900000610E788459349158569149442B036234
:1047A00013B9841A735D66234589502294C8441155
:1047B0001200630E77845824118D2A8C88441400CB
:1047C0006413B984BA736D139168229408254291D9
:1047D000683619650E78845934914478A8CB44150D
:1047E00000660DB6845623896E25A16E24006710DD
:1047F000B76CB8928A8C26A9844D57A1A40268117F
:10480000B9841A735D662335914C2413C9240C694D
:104810000AA4843522E9482F046A0CD56A75EA3364
:104820007DA34826006B11B88419639D26221519B3
:104830005122134946036C09B4841523FD0B016D05
:10484000127E841F93D16C3452539229C994642AE6
:104850001C6E1079841A93D9484D2413C944320927
:10486000036F0E788459349144C82811C9480070E8
:1048700013A96C1A93D94851229408252395995C61
:104880004C057113A96C59949068229408254291A3
:104890006836912B13720B7784179315558D34005E
:1048A000730A7684373722DB0500740FA68456D14D
:1048B000A0AC24D41411852600751179841AA39113
:1048C0004C2413C9443291683619761078831794B2
:1048D000892C248B498292A8580677187D831C1452
:1048E000CA44260BC964314944129444245199584E
:1048F0002603780F788419A389484695D26292D10D
:10490000007914A86B1794892C248B498292A8589B
:104910001C9404A7007A0876841737BD1D7B0DD53B
:104920007476A298B6D4A04C312A7C07B1871807B8
:10493000027D0FD57416D2A04C311A8B690BC900B9
:104940007E0927A43813CA0400A005008C14A1090D
:10495000B26D15B6C88100A211977CB83192A454EB
:104960008949429189881604A311B88479C390AE0D
:1049700046B1383A941C221400A41188941921518C
:10498000C4A422244A44224B4814A515BA841BB45B
:104990008934260BCAA292B0246A169BE53400A67D
:1049A00007B18718A402A713D674572389242411AA
:1049B00052424D116289141A01A80825C517128A9E
:1049C00000A919BB849C63992C1E0A519244215161
:1049D00058244A098DD263CA4300AA0B75A4164312
:1049E000D124A2B500AB0B578C5812BD49641201FB
:1049F000AC07479418E70CAD07249C158700AE1B45
:104A0000BB849C63992C1E8A9022B15048369345F2
:104A10006291884A281E531E02AF0615C51705B0BD
:104A20000A44BD369290282201B10B778C78E1D8E8
:104A30002D1C871DB20A65AB3593904CA454B30B63
:104A400065AB359390E2483201B40934C55612493A
:104A50000C00B516A96C1A94914C2413C9443291D8
:104A6000684499C421723100B617B9843A078BA4FF
:104A700022A9482A228A50229408254289EC00B7AC
:104A80000622A51504B807336D353102B90964ACA7
:104A90003592911602BA0A75A43613098B645CBB71
:104AA0000C578C1812994426D11300BC1BBB843CB4
:104AB000C2D84C288B8AA4A2A8491A1A4A22C248F2
:104AC000482631452500BD18BB843CC2D84C288BF4
:104AD0008AA4A2A8651A09C984B2A04C3156BE1D89
:104AE000BC833CC35848551697084392F044240EA3
:104AF0004D251169242494D8A21200BF0FB66C571B
:104B000042756050A62822492800C01CFA845B72B6
:104B1000901C16479443E41171441C8AC68431A149
:104B20002D2A8A4A6604C11AFA84DB72791C550E52
:104B30009147C41171281A13C684B6A8282A99115E
:104B4000C21CFA84BB71C83816479243E411714401
:104B50001C8AC68431A12D2A8A4A6604C31BEA84B2
:104B60007B9360648E2687C823E28838148D09639E
:104B7000425B541495CC08C41AEA845B8A223992A9
:104B80001C228F8823E25034268C096D51515432F7
:104B900023C51BFA849BF2505C8E2887C823E288C9
:104BA00038148D0963425B541495CC08C61EBF832C
:104BB0009F076A44288D488321516248148E954D81
:104BC000D1A028A3341215D60E02C71AEA6C7B9521
:104BD000C850229ECF2172881C2207892343593D49
:104BE0000E8BCF00C81CF9847A72881C14071E240F
:104BF000428934224A11058BA2A028451A111E08A9
:104C0000C91AF984DACA71F04122944823A21451D6
:104C1000B0280A8A52A411E18100CA1BF984BAF1B2
:104C2000692C0E3B488412694494220A164541516E
:104C30008A34223C10CB1AE9845A6A2239EC2011BA
:104C40004AA411518A285814054529D288F040CC2D
:104C50000CF4851732619022D25F08CD0EF585776E
:104C600022511C4292E94F1400CE0EF58557B149EE
:104C70002C4A92E94F1400CF0DE6841722929C260D
:104C8000D4DF2800D018BB841C87A0702415892588
:104C9000E2A3442C114BA422E1E41003D120EB84C5
:104CA0009C9368640E9F4EA6216228320B8564A1F6
:104CB00098286D120A92A2A3B0641C01D217FB843B
:104CC0007C72981C18472CCE4652899C77895434A4
:104CD0001BD600D318FB84FC1039440E89231667B9
:104CE00023A944CEBB442A9A0D6B00D417FB84BC85
:104CF00071D03C16472BCE4652899C778954341B81
:104D0000D600D516EB849C9368648E569C8DA412B5
:104D100039EF12A96836AC01D616EB847C22A9487B
:104D20008E549C8DA41239EF12A96836AC01D70FAE
:104D3000788C184289484695D24412A100D81ABBF3
:104D4000847CA5C86C24954823C4102D460A52A221
:104D500012A9683609D500D91EFB849C72981C18CC
:104D6000871327E29038240E8943E29038240E8975
:104D700063C2680D00DA1EFB84FC72881C12472295
:104D80004EC42171481C1287C42171481C12C7846B
:104D9000D11A00DB1EFB84BC71D03C16871327E2BE
:104DA0009038240E8943E29038240E8963C2680D3E
:104DB00000DC1DEB847C22A9480E264EC4217148DC
:104DC0001C1287C42171481C12C784D11A00DD1A35
:104DD000FA84FBEA71386D228DC982B2A8242C892D
:104DE000CB2172881C22A701DE13B9841A64F94909
:104DF00036114A8412D9C426175301DF17B88479B3
:104E0000B498442691852432594826914964125910
:104E10006502E012B884597239240EA589C4B28A99
:104E20004C225A19E112B8849952691C852612CB7A
:104E30002A3289686500E212B88479E1A1440EA59E
:104E400089C4B28A4C225A19E312A8845992584450
:104E50000EA689C4B28A4C225A19E412A884396A6F
:104E60001239942612CB2A3289686500E512B8847B
:104E700079D250540EA689C4B28A4C225A19E6132C
:104E80007D845E239A6824168A0E36B16C262155DD
:104E900000E710A76C5824118D2A8C8844C47870C0
:104EA00004E812B884597239240EA58924C2435DDE
:104EB00026AA00E911B8849952691C852692080F28
:104EC0007599A802EA12B88479E1A1440EA5892453
:104ED000C2435D26AA00EB11A884396A12399426D0
:104EE00092080F7599A802EC0BB48415326170A476
:104EF0001702ED0BB4845512497CA41702EE0CB5D1
:104F00008455B189EA4C4F1400EF0CA58415128A20
:104F100074A6270A00F012B8841932D99016139695
:104F200054848C12918C04F114A9847A9260440EFA
:104F30009DCC466A22994826924918F212B88459A3
:104F40007239240EA58924424689484602F312B8D4
:104F5000849952691C85269208192522190900F4A2
:104F600012B88479E1A1440EA589244246894846B5
:104F700002F512A884599258440EA6892442468903
:104F8000484602F612A884396A1239942692081902
:104F90002522190900F70D788C786239F010078AFC
:104FA0006500F813987CD9319A64228A5042949013
:104FB0004424A38501F917B9845A72881C148752B6
:104FC0002832914C2413C944A2D96400FA14B9843C
:104FD0009A62711C854526928964229948349B0CFB
:104FE000FB16B9849AF1A9440EA45064229948266C
:104FF000928944B3C900FC16A9845A12A1440EA494
:10500000506422994826928944B3C900FD17E86B81
:10501000B7AA712865220BC96292A0242A16072517
:10502000C12900FE15E96C1A735D6623458950227B
:10503000948C546672311500FF18D86B571299443E
:105040000EA24C6421594C129444C5E2A0243805A8
:1050500000000004FFFF00005F00030304040305D9
:1050600005100FFEFD0BFD0BFE01C0044005FA20EC
:1050700005008C142109B28514074ACC002208438C
:10508000BD15112D012316A7847891602418099964
:1050900022C148C8140946829118002417D77C7889
:1050A000C18A24328A5062C4222D42094D22926262
:1050B0000C00251FBC845DC2A084284A1445A2921E
:1050C000505814138724C190281812C5629260505A
:1050D00004261ABC847D7491582416C5217308696E
:1050E000141A856434E188562A8900270641BD13C5
:1050F00004280DD47475A19028A4B7982C18290EF3
:10510000D47415C1982C26D229244A032A0B55B4ED
:10511000562929934C21002B0B778C78E1B45B380E
:105120000D002C085275141609002D07249C1587B4
:10513000002E06328514062F0DB48475996249B18C
:10514000A4580C00300DB7845833891ABF49D4468F
:10515000003109B58558129AFE44320DB7843824BF
:10516000514DAAA8DBE1103310B7843824514D2AE1
:105170009491A534D284043411B78498C2B5882C94
:10518000220A894292A354483511B784389652387E
:105190006524994A69A40909003610B78458241176
:1051A0008D2A59A9B195242400370FB784180FC14F
:1051B000484C2A942A4AD5003811B78438A4118D56
:1051C0006689912236A61105003910B7845814510A
:1051D0008DADB222A5914424003A077285142603AE
:1051E0003B09927514268B04003C0A778CD8C1D1F8
:1051F000F272003D07379C18F7033E0A778C18E1DE
:105200004D8B61003F0EB6843714114928538C032F
:105210003501401DBD849ED6E14836922849482A72
:10522000149188229268992849867248EC2002419C
:1052300017BA849B72883C228E8843D1983026B45A
:10524000454551C98C004215B9841A37259948261D
:10525000523B0925428950223B8C004317BA847B7C
:1052600095C850229ECF2172881C2207892343595A
:1052700009004419BB841C87A07024158925628904
:1052800058229688255291707288014517B9841A60
:10529000078950228D885244C1A228284A91468409
:1052A00007024616B9841A078950228D885244C1D4
:1052B000A228280ACAC554004718BB847C95D05040
:1052C000248EC82372901C243C8BA4A2D990140174
:1052D0004818BB841C348A542415494552D14124B2
:1052E00015494552915442234909B485171491FE3A
:1052F000424A0EB7847944A95E44129124B4064B05
:1053000017BB841C249230288B8AC292785932159C
:105310000D6533E184544C0EB9841A64B9BE46A4B9
:1053200011E181004D24BD841E54CA74341D4564AE
:10533000115144161145641151481212852421510E
:10534000481212C5544622024E1CBB841CD3C934D9
:10535000440C4566A1902C1413A54D42415274147F
:10536000968C23004F12BB847CC5D9482A91F32E1A
:10537000918A66C31A005012B9841A87906C2294DD
:105380000825B2894DAE990A5119EB6C7CC5D948F4
:105390002A91F332938824A211B10E128527F109C4
:1053A000005217BB841C87A06C269409658A569905
:1053B000502654134A6A13005312B9845A94C84CA5
:1053C000228D482364E7319152025416BA841B8718
:1053D0009268A62D2887C82172881C2287C8690078
:1053E0005518BB841CC48938240E8943E2903824A4
:1053F0000E8943E298305A035618BA841BB4893494
:10540000248DC982B2A02C2A094BC292B81C220456
:105410005724BD841E14CA44260BC96421992C2626
:10542000894882928824288948829288242A13CB2A
:10543000C43219005817BB841C25CA50268C8AE236
:1054400092F83C220F498332E184545917BA841BE5
:10545000B48934260BCAA292B0242E87C821728840
:105460009C065A0FB8841987E19036D53A230E0F5F
:10547000035B09D4741526FD27025C0FB68417D18F
:1054800070341C0D47C3D170005D09D4741524FD20
:1054900027035E0F77A478E1E830129388621199B0
:1054A000005F0617741707600834C5163261006183
:1054B0000E788459349158569149442B036213B99C
:1054C000841A735D66234589502294C844111200E2
:1054D000630E77845824118D2A8C88441400641339
:1054E000B984BA736D139168229408254291683685
:1054F00019650E78845934914478A8CB4415006618
:105500000DB6845623896E25A16E24006710B76CF2
:10551000B8928A8C26A9844D57A1A4026811B98437
:105520001A735D662335914C2413C9240C690AA4AF
:10553000843522E9482F046A0CD56A75EA337DA3C5
:105540004826006B11B88419639D26221519512233
:10555000134946036C09B4841523FD0B016D127EBB
:10556000841F93D16C3452539229C994642A1C6EBF
:105570001079841A93D9484D2413C9443209036F12
:105580000E788459349144C82811C948007013A971
:105590006C1A93D94851229408252395995C4C059F
:1055A0007113A96C59949068229408254291683629
:1055B000912B13720B7784179315558D3400730A52
:1055C0007684373722DB0500740FA68456D1A0AC51
:1055D00024D41411852600751179841AA3914C24C2
:1055E00013C9443291683619761078831794892C40
:1055F000248B498292A8580677187D831C14CA44CC
:10560000260BC96431494412944424519958260305
:10561000780F788419A389484695D26292D100798F
:1056200014A86B1794892C248B498292A8581C9437
:1056300004A7007A0876841737BD1D7B0DD57476D4
:10564000A298B6D4A04C312A7C07B1871807027DF6
:105650000FD57416D2A04C311A8B690BC9007E0984
:1056600027A43813CA040000000004FFFF0000BF95
:1056700000030305050405061213FEFD0CFD0CFED8
:10568000023104F90EFA200600642401210D83255D
:105690002C13395442D1882502220CA5E035216112
:1056A0001945421100231A8A215427128A8422D1D3
:1056B000417210298A4407C941A428128A6400242F
:1056C0001DE9E1531987846B9250441429A5188F62
:1056D0009650A8122285249288AC1C0425258C257E
:1056E00074350B4E88A2485016098A225151243233
:1056F0009A4426D1882818910523A26048148C8DDD
:1057000000261A8C25744917894562519C892219F3
:10571000494693908CB654B29426002708A2E425FB
:10572000718900280EC4A533170AA988F4269205AA
:1057300003290FC4A133118C896422BD88446900F8
:105740002A11E76045178CA44822A2912422C91887
:10575000032B0D08255427563B1C646235002C0C86
:10576000C4602B23A18C429218002D0744E02C71B9
:10577000082E0964202C23A148002F0F85212C9985
:10578000164C0BC68269C12000301489215437950C
:10579000C894649299B7894C245391CE00310A87FA
:1057A0002554272AEE9F0E3213882554458B4946EF
:1057B000A6496C38D516111E0E0333158921545590
:1057C000132DC9626269793E919D26A25909003460
:1057D000148921541D174F89916164161AC5460713
:1057E000E1787835138825547331C5E3B5D0781244
:1057F00033994AA31200361689215457134D441485
:1058000099643C1951D66C13D964910437128825D8
:1058100054F110094A82926058552C5D0E023815D9
:1058200088255445134946A68948461349464E13D0
:10583000918C043917892154459CAC4966B6C984BA
:1058400034194F6412926424AB013A0D04212C23C5
:10585000A1C861128A04003B0F64612B23A1C861B7
:1058600012CA282489013C0B0865542D24319299D1
:10587000053D0BC86454F120473A1C043E0B0865F3
:105880005421E6486214033F1488214445134928F3
:1058900013D1702A8DA384A7E32000401CACE163E0
:1058A000599D8DE4A19824429288F42F14C92414A0
:1058B00092C5E4A2D9B406411B8D216C2B07CE61A1
:1058C00073101D14994BE6B1E9212A9B4667D2114A
:1058D000CD00421A8C216C7118CE1647C3D16C765C
:1058E00008CE1647C3D170349B1C460043198B2544
:1058F0006C5909CD2653C9984E87CC21F3C838324C
:105900008DCDA43400441A8D21747110CF866BC3E1
:10591000D974341D4D47D3D170369C2D1D8400455C
:10592000198B216471200D4543D1286922B54EA4FD
:10593000A3A46968281A1E0C46198B216471200DD6
:105940004543D1286922B54EA4A3E81C32878C8F29
:1059500000471A8D25745909CE5665E3D03C34872B
:10596000CD0ED3D970365C22934200480F8E217C35
:1059700071310DF7E361B8FF7431490A87213C7139
:105980001AEE9F0E4A128A215C779DEF261A514625
:105990004BC1916858044B1A8E216C71A90DA53327
:1059A000F1483E9143EEF70979449D1187948B01AC
:1059B0004C198B2164719E43E69039640E9943E63D
:1059C0009069681A1A8A8607034D259021846134EC
:1059D0001189911931328A0C23A3C83034890C43C0
:1059E000A46188348C8D8631D9306D540A194E1DCE
:1059F0008E2174412D8D83D4603185160C918231B6
:105A00004A30588C12C3C3B8A81C024F168C257498
:105A1000491ECD86A3E164EC79321C0D67A33111D8
:105A20000050198C216C7118CE1647C3D170349B6D
:105A30001D8273D01C3407CDAF00511DEC65734936
:105A40001ECD86A3E164EC493491842222B6D1B8FC
:105A50000E9BC4EB900900521B8D21747198CE8669
:105A60006BC3D9E2213A128FA6B3E16C129A1D687A
:105A70001300531489255C5549AC926D11A325661A
:105A8000A6162391120054198B21647130ADCD6498
:105A9000B3E01C3287CC2173C81C32878C4F005571
:105AA0001B8E2174712A8D83E3E038380E8E83E3D8
:105AB000E038388E0EC32439840A561B8D1D6C7154
:105AC000224D65C4E8303A8B8FE29338A40EA2834E
:105AD000E64039500A57228F2184516199E9161CFA
